{
  "contractName": "MultiSigWallet",
  "abi": [
    {
      "inputs": [
        {
          "internalType": "address[]",
          "name": "_owners",
          "type": "address[]"
        },
        {
          "internalType": "uint256",
          "name": "_requiredConfirmations",
          "type": "uint256"
        }
      ],
      "stateMutability": "nonpayable",
      "type": "constructor"
    },
    {
      "anonymous": false,
      "inputs": [
        {
          "indexed": true,
          "internalType": "address",
          "name": "owner",
          "type": "address"
        },
        {
          "indexed": false,
          "internalType": "uint256",
          "name": "transactionId",
          "type": "uint256"
        }
      ],
      "name": "ExecutedTransaction",
      "type": "event"
    },
    {
      "anonymous": false,
      "inputs": [
        {
          "indexed": true,
          "internalType": "address",
          "name": "owner",
          "type": "address"
        },
        {
          "indexed": false,
          "internalType": "uint256",
          "name": "transactionId",
          "type": "uint256"
        }
      ],
      "name": "TransactionApproved",
      "type": "event"
    },
    {
      "anonymous": false,
      "inputs": [
        {
          "indexed": true,
          "internalType": "address",
          "name": "owner",
          "type": "address"
        },
        {
          "indexed": true,
          "internalType": "address",
          "name": "destination",
          "type": "address"
        },
        {
          "indexed": false,
          "internalType": "uint256",
          "name": "amount",
          "type": "uint256"
        },
        {
          "indexed": false,
          "internalType": "uint256",
          "name": "transactionId",
          "type": "uint256"
        }
      ],
      "name": "TransactionProposed",
      "type": "event"
    },
    {
      "anonymous": false,
      "inputs": [
        {
          "indexed": true,
          "internalType": "address",
          "name": "sender",
          "type": "address"
        },
        {
          "indexed": false,
          "internalType": "uint256",
          "name": "amount",
          "type": "uint256"
        },
        {
          "indexed": false,
          "internalType": "uint256",
          "name": "balance",
          "type": "uint256"
        }
      ],
      "name": "contractFallback",
      "type": "event"
    },
    {
      "anonymous": false,
      "inputs": [
        {
          "indexed": true,
          "internalType": "address",
          "name": "sender",
          "type": "address"
        },
        {
          "indexed": false,
          "internalType": "uint256",
          "name": "amount",
          "type": "uint256"
        },
        {
          "indexed": false,
          "internalType": "uint256",
          "name": "balance",
          "type": "uint256"
        }
      ],
      "name": "deposit2Contract",
      "type": "event"
    },
    {
      "anonymous": false,
      "inputs": [
        {
          "indexed": true,
          "internalType": "address",
          "name": "owner",
          "type": "address"
        },
        {
          "indexed": false,
          "internalType": "uint256",
          "name": "transactionId",
          "type": "uint256"
        }
      ],
      "name": "rejectedTransaction",
      "type": "event"
    },
    {
      "stateMutability": "payable",
      "type": "fallback"
    },
    {
      "inputs": [
        {
          "internalType": "uint256",
          "name": "",
          "type": "uint256"
        },
        {
          "internalType": "address",
          "name": "",
          "type": "address"
        }
      ],
      "name": "isApproved",
      "outputs": [
        {
          "internalType": "bool",
          "name": "",
          "type": "bool"
        }
      ],
      "stateMutability": "view",
      "type": "function"
    },
    {
      "inputs": [
        {
          "internalType": "address",
          "name": "",
          "type": "address"
        }
      ],
      "name": "isOwner",
      "outputs": [
        {
          "internalType": "bool",
          "name": "",
          "type": "bool"
        }
      ],
      "stateMutability": "view",
      "type": "function"
    },
    {
      "inputs": [
        {
          "internalType": "uint256",
          "name": "",
          "type": "uint256"
        }
      ],
      "name": "owners",
      "outputs": [
        {
          "internalType": "address",
          "name": "",
          "type": "address"
        }
      ],
      "stateMutability": "view",
      "type": "function"
    },
    {
      "inputs": [],
      "name": "requiredConfirmations",
      "outputs": [
        {
          "internalType": "uint256",
          "name": "",
          "type": "uint256"
        }
      ],
      "stateMutability": "view",
      "type": "function"
    },
    {
      "inputs": [
        {
          "internalType": "uint256",
          "name": "",
          "type": "uint256"
        }
      ],
      "name": "revokedTransactions",
      "outputs": [
        {
          "internalType": "address",
          "name": "txSender",
          "type": "address"
        },
        {
          "internalType": "address payable",
          "name": "destination",
          "type": "address"
        },
        {
          "internalType": "uint256",
          "name": "amount",
          "type": "uint256"
        },
        {
          "internalType": "bool",
          "name": "isExecuted",
          "type": "bool"
        },
        {
          "internalType": "uint256",
          "name": "noOfConfirmations",
          "type": "uint256"
        },
        {
          "internalType": "uint256",
          "name": "txId",
          "type": "uint256"
        },
        {
          "internalType": "bytes",
          "name": "data",
          "type": "bytes"
        }
      ],
      "stateMutability": "view",
      "type": "function"
    },
    {
      "inputs": [
        {
          "internalType": "uint256",
          "name": "",
          "type": "uint256"
        }
      ],
      "name": "successfulTransactions",
      "outputs": [
        {
          "internalType": "address",
          "name": "txSender",
          "type": "address"
        },
        {
          "internalType": "address payable",
          "name": "destination",
          "type": "address"
        },
        {
          "internalType": "uint256",
          "name": "amount",
          "type": "uint256"
        },
        {
          "internalType": "bool",
          "name": "isExecuted",
          "type": "bool"
        },
        {
          "internalType": "uint256",
          "name": "noOfConfirmations",
          "type": "uint256"
        },
        {
          "internalType": "uint256",
          "name": "txId",
          "type": "uint256"
        },
        {
          "internalType": "bytes",
          "name": "data",
          "type": "bytes"
        }
      ],
      "stateMutability": "view",
      "type": "function"
    },
    {
      "inputs": [
        {
          "internalType": "uint256",
          "name": "",
          "type": "uint256"
        }
      ],
      "name": "transactions",
      "outputs": [
        {
          "internalType": "address",
          "name": "txSender",
          "type": "address"
        },
        {
          "internalType": "address payable",
          "name": "destination",
          "type": "address"
        },
        {
          "internalType": "uint256",
          "name": "amount",
          "type": "uint256"
        },
        {
          "internalType": "bool",
          "name": "isExecuted",
          "type": "bool"
        },
        {
          "internalType": "uint256",
          "name": "noOfConfirmations",
          "type": "uint256"
        },
        {
          "internalType": "uint256",
          "name": "txId",
          "type": "uint256"
        },
        {
          "internalType": "bytes",
          "name": "data",
          "type": "bytes"
        }
      ],
      "stateMutability": "view",
      "type": "function"
    },
    {
      "inputs": [],
      "name": "toggleCircuitBreaker",
      "outputs": [],
      "stateMutability": "nonpayable",
      "type": "function"
    },
    {
      "inputs": [],
      "name": "deposit",
      "outputs": [],
      "stateMutability": "payable",
      "type": "function"
    },
    {
      "inputs": [],
      "name": "checkBalance",
      "outputs": [
        {
          "internalType": "uint256",
          "name": "",
          "type": "uint256"
        }
      ],
      "stateMutability": "view",
      "type": "function"
    },
    {
      "inputs": [],
      "name": "viewOwners",
      "outputs": [
        {
          "internalType": "address[]",
          "name": "",
          "type": "address[]"
        }
      ],
      "stateMutability": "view",
      "type": "function"
    },
    {
      "inputs": [],
      "name": "viewTransactions",
      "outputs": [
        {
          "internalType": "address[]",
          "name": "",
          "type": "address[]"
        },
        {
          "internalType": "address[]",
          "name": "",
          "type": "address[]"
        },
        {
          "internalType": "uint256[]",
          "name": "",
          "type": "uint256[]"
        },
        {
          "internalType": "uint256[]",
          "name": "",
          "type": "uint256[]"
        },
        {
          "internalType": "uint256[]",
          "name": "",
          "type": "uint256[]"
        }
      ],
      "stateMutability": "view",
      "type": "function"
    },
    {
      "inputs": [],
      "name": "viewSuccessfulTransactions",
      "outputs": [
        {
          "internalType": "address[]",
          "name": "",
          "type": "address[]"
        },
        {
          "internalType": "address[]",
          "name": "",
          "type": "address[]"
        },
        {
          "internalType": "uint256[]",
          "name": "",
          "type": "uint256[]"
        },
        {
          "internalType": "uint256[]",
          "name": "",
          "type": "uint256[]"
        },
        {
          "internalType": "uint256[]",
          "name": "",
          "type": "uint256[]"
        }
      ],
      "stateMutability": "view",
      "type": "function"
    },
    {
      "inputs": [],
      "name": "viewFailedTransactions",
      "outputs": [
        {
          "internalType": "address[]",
          "name": "",
          "type": "address[]"
        },
        {
          "internalType": "address[]",
          "name": "",
          "type": "address[]"
        },
        {
          "internalType": "uint256[]",
          "name": "",
          "type": "uint256[]"
        },
        {
          "internalType": "uint256[]",
          "name": "",
          "type": "uint256[]"
        },
        {
          "internalType": "uint256[]",
          "name": "",
          "type": "uint256[]"
        }
      ],
      "stateMutability": "view",
      "type": "function"
    },
    {
      "inputs": [
        {
          "internalType": "address payable",
          "name": "_destination",
          "type": "address"
        },
        {
          "internalType": "uint256",
          "name": "_amount",
          "type": "uint256"
        },
        {
          "internalType": "bytes",
          "name": "_data",
          "type": "bytes"
        }
      ],
      "name": "proposeTransaction",
      "outputs": [],
      "stateMutability": "nonpayable",
      "type": "function"
    },
    {
      "inputs": [
        {
          "internalType": "uint256",
          "name": "_transactionId",
          "type": "uint256"
        }
      ],
      "name": "approveTransaction",
      "outputs": [],
      "stateMutability": "nonpayable",
      "type": "function"
    },
    {
      "inputs": [
        {
          "internalType": "uint256",
          "name": "_transactionId",
          "type": "uint256"
        }
      ],
      "name": "executeTransaction",
      "outputs": [],
      "stateMutability": "nonpayable",
      "type": "function"
    },
    {
      "inputs": [
        {
          "internalType": "uint256",
          "name": "_transactionId",
          "type": "uint256"
        }
      ],
      "name": "rejectTransaction",
      "outputs": [],
      "stateMutability": "nonpayable",
      "type": "function"
    }
  ],
  "bytecode": "0x608060405260018060006101000a81548160ff0219169083151502179055503480156200002b57600080fd5b50604051620038ec380380620038ec833981810160405260408110156200005157600080fd5b81019080805160405193929190846401000000008211156200007257600080fd5b838201915060208201858111156200008957600080fd5b8251866020820283011164010000000082111715620000a757600080fd5b8083526020830192505050908051906020019060200280838360005b83811015620000e0578082015181840152602081019050620000c3565b5050505090500160405260200180519060200190929190505050600160008190555060018251116200015e576040517f08c379a000000000000000000000000000000000000000000000000000000000815260040180806020018281038252603b815260200180620038b1603b913960400191505060405180910390fd5b60018111801562000170575081518111155b6200017a57600080fd5b60005b8251811015620003cf5760008382815181106200019657fe5b60200260200101519050600073ffffffffffffffffffffffffffffffffffffffff168173ffffffffffffffffffffffffffffffffffffffff16141562000244576040517f08c379a00000000000000000000000000000000000000000000000000000000081526004018080602001828103825260198152602001807f54686973206973206e6f7420612076616c6964206f776e65720000000000000081525060200191505060405180910390fd5b600660008273ffffffffffffffffffffffffffffffffffffffff1673ffffffffffffffffffffffffffffffffffffffff16815260200190815260200160002060009054906101000a900460ff161562000305576040517f08c379a00000000000000000000000000000000000000000000000000000000081526004018080602001828103825260108152602001807f6f776e6572206e6f7420756e697175650000000000000000000000000000000081525060200191505060405180910390fd5b6001600660008373ffffffffffffffffffffffffffffffffffffffff1673ffffffffffffffffffffffffffffffffffffffff16815260200190815260200160002060006101000a81548160ff0219169083151502179055506005819080600181540180825580915050600190039060005260206000200160009091909190916101000a81548173ffffffffffffffffffffffffffffffffffffffff021916908373ffffffffffffffffffffffffffffffffffffffff1602179055505080806001019150506200017d565b508060078190555050506134c880620003e96000396000f3fe60806040526004361061010d5760003560e01c80635e90852d11610095578063ce1754e711610064578063ce1754e714610a21578063d0e30db014610bad578063d5eb63cc14610bb7578063ee22610b14610bce578063f89f248714610c095761010e565b80635e90852d1461079f57806382e717f7146108915780639ace38c2146108bc578063c71daccb146109f65761010e565b806327207230116100dc57806327207230146103915780632f54bf6e146104cb5780633e55ed72146105345780634f6d6922146106c057806356c316371461072c5761010e565b8063025e7c271461016657806305bf37aa146101e157806308ab10a21461021c578063242232d1146103565761010e565b5b3373ffffffffffffffffffffffffffffffffffffffff167f6516b3c931a182ac0cb5aec31a6c8ca76ed627a0b478aded50734de5041893c33447604051808381526020018281526020019250505060405180910390a2005b34801561017257600080fd5b5061019f6004803603602081101561018957600080fd5b8101908080359060200190929190505050610d95565b604051808273ffffffffffffffffffffffffffffffffffffffff1673ffffffffffffffffffffffffffffffffffffffff16815260200191505060405180910390f35b3480156101ed57600080fd5b5061021a6004803603602081101561020457600080fd5b8101908080359060200190929190505050610dd1565b005b34801561022857600080fd5b506102556004803603602081101561023f57600080fd5b8101908080359060200190929190505050611536565b604051808873ffffffffffffffffffffffffffffffffffffffff1673ffffffffffffffffffffffffffffffffffffffff1681526020018773ffffffffffffffffffffffffffffffffffffffff1673ffffffffffffffffffffffffffffffffffffffff1681526020018681526020018515151515815260200184815260200183815260200180602001828103825283818151815260200191508051906020019080838360005b838110156103155780820151818401526020810190506102fa565b50505050905090810190601f1680156103425780820380516001836020036101000a031916815260200191505b509850505050505050505060405180910390f35b34801561036257600080fd5b5061038f6004803603602081101561037957600080fd5b810190808035906020019092919050505061166a565b005b34801561039d57600080fd5b506103ca600480360360208110156103b457600080fd5b8101908080359060200190929190505050611942565b604051808873ffffffffffffffffffffffffffffffffffffffff1673ffffffffffffffffffffffffffffffffffffffff1681526020018773ffffffffffffffffffffffffffffffffffffffff1673ffffffffffffffffffffffffffffffffffffffff1681526020018681526020018515151515815260200184815260200183815260200180602001828103825283818151815260200191508051906020019080838360005b8381101561048a57808201518184015260208101905061046f565b50505050905090810190601f1680156104b75780820380516001836020036101000a031916815260200191505b509850505050505050505060405180910390f35b3480156104d757600080fd5b5061051a600480360360208110156104ee57600080fd5b81019080803573ffffffffffffffffffffffffffffffffffffffff169060200190929190505050611a76565b604051808215151515815260200191505060405180910390f35b34801561054057600080fd5b50610549611a96565b60405180806020018060200180602001806020018060200186810386528b818151815260200191508051906020019060200280838360005b8381101561059c578082015181840152602081019050610581565b5050505090500186810385528a818151815260200191508051906020019060200280838360005b838110156105de5780820151818401526020810190506105c3565b50505050905001868103845289818151815260200191508051906020019060200280838360005b83811015610620578082015181840152602081019050610605565b50505050905001868103835288818151815260200191508051906020019060200280838360005b83811015610662578082015181840152602081019050610647565b50505050905001868103825287818151815260200191508051906020019060200280838360005b838110156106a4578082015181840152602081019050610689565b505050509050019a505050505050505050505060405180910390f35b3480156106cc57600080fd5b506106d5611e18565b6040518080602001828103825283818151815260200191508051906020019060200280838360005b838110156107185780820151818401526020810190506106fd565b505050509050019250505060405180910390f35b34801561073857600080fd5b506107856004803603604081101561074f57600080fd5b8101908080359060200190929190803573ffffffffffffffffffffffffffffffffffffffff169060200190929190505050611ea6565b604051808215151515815260200191505060405180910390f35b3480156107ab57600080fd5b5061088f600480360360608110156107c257600080fd5b81019080803573ffffffffffffffffffffffffffffffffffffffff169060200190929190803590602001909291908035906020019064010000000081111561080957600080fd5b82018360208201111561081b57600080fd5b8035906020019184600183028401116401000000008311171561083d57600080fd5b91908080601f016020809104026020016040519081016040528093929190818152602001838380828437600081840152601f19601f820116905080830192505050505050509192919290505050611ed5565b005b34801561089d57600080fd5b506108a661218a565b6040518082815260200191505060405180910390f35b3480156108c857600080fd5b506108f5600480360360208110156108df57600080fd5b8101908080359060200190929190505050612190565b604051808873ffffffffffffffffffffffffffffffffffffffff1673ffffffffffffffffffffffffffffffffffffffff1681526020018773ffffffffffffffffffffffffffffffffffffffff1673ffffffffffffffffffffffffffffffffffffffff1681526020018681526020018515151515815260200184815260200183815260200180602001828103825283818151815260200191508051906020019080838360005b838110156109b557808201518184015260208101905061099a565b50505050905090810190601f1680156109e25780820380516001836020036101000a031916815260200191505b509850505050505050505060405180910390f35b348015610a0257600080fd5b50610a0b6122c4565b6040518082815260200191505060405180910390f35b348015610a2d57600080fd5b50610a366122cc565b60405180806020018060200180602001806020018060200186810386528b818151815260200191508051906020019060200280838360005b83811015610a89578082015181840152602081019050610a6e565b5050505090500186810385528a818151815260200191508051906020019060200280838360005b83811015610acb578082015181840152602081019050610ab0565b50505050905001868103845289818151815260200191508051906020019060200280838360005b83811015610b0d578082015181840152602081019050610af2565b50505050905001868103835288818151815260200191508051906020019060200280838360005b83811015610b4f578082015181840152602081019050610b34565b50505050905001868103825287818151815260200191508051906020019060200280838360005b83811015610b91578082015181840152602081019050610b76565b505050509050019a505050505050505050505060405180910390f35b610bb561264e565b005b348015610bc357600080fd5b50610bcc6126a6565b005b348015610bda57600080fd5b50610c0760048036036020811015610bf157600080fd5b81019080803590602001909291905050506127b3565b005b348015610c1557600080fd5b50610c1e612f62565b60405180806020018060200180602001806020018060200186810386528b818151815260200191508051906020019060200280838360005b83811015610c71578082015181840152602081019050610c56565b5050505090500186810385528a818151815260200191508051906020019060200280838360005b83811015610cb3578082015181840152602081019050610c98565b50505050905001868103845289818151815260200191508051906020019060200280838360005b83811015610cf5578082015181840152602081019050610cda565b50505050905001868103835288818151815260200191508051906020019060200280838360005b83811015610d37578082015181840152602081019050610d1c565b50505050905001868103825287818151815260200191508051906020019060200280838360005b83811015610d79578082015181840152602081019050610d5e565b505050509050019a505050505050505050505060405180910390f35b60058181548110610da257fe5b906000526020600020016000915054906101000a900473ffffffffffffffffffffffffffffffffffffffff1681565b600660003373ffffffffffffffffffffffffffffffffffffffff1673ffffffffffffffffffffffffffffffffffffffff16815260200190815260200160002060009054906101000a900460ff16610e90576040517f08c379a000000000000000000000000000000000000000000000000000000000815260040180806020018281038252601a8152602001807f596f7520617265206e6f742070617274206f66206f776e65727300000000000081525060200191505060405180910390fd5b8060008110158015610ea757506002805490508111155b610f19576040517f08c379a000000000000000000000000000000000000000000000000000000000815260040180806020018281038252601c8152602001807f6e6f742077697468696e207472616e73616374696f6e2072616e67650000000081525060200191505060405180910390fd5b8160028181548110610f2757fe5b906000526020600020906007020160030160009054906101000a900460ff1615610fb9576040517f08c379a000000000000000000000000000000000000000000000000000000000815260040180806020018281038252601c8152602001807f5472616e73616374696f6e20616c72656164792065786563757465640000000081525060200191505060405180910390fd5b600060028481548110610fc857fe5b906000526020600020906007020190506008600085815260200190815260200160002060003373ffffffffffffffffffffffffffffffffffffffff1673ffffffffffffffffffffffffffffffffffffffff16815260200190815260200160002060009054906101000a900460ff166110a8576040517f08c379a00000000000000000000000000000000000000000000000000000000081526004018080602001828103825260188152602001807f5472616e73616374696f6e206e6f7420417070726f766564000000000000000081525060200191505060405180910390fd5b6001816004016000828254039250508190555060006008600086815260200190815260200160002060003373ffffffffffffffffffffffffffffffffffffffff1673ffffffffffffffffffffffffffffffffffffffff16815260200190815260200160002060006101000a81548160ff02191690831515021790555060048190806001815401808255809150506001900390600052602060002090600702016000909190919091506000820160009054906101000a900473ffffffffffffffffffffffffffffffffffffffff168160000160006101000a81548173ffffffffffffffffffffffffffffffffffffffff021916908373ffffffffffffffffffffffffffffffffffffffff1602179055506001820160009054906101000a900473ffffffffffffffffffffffffffffffffffffffff168160010160006101000a81548173ffffffffffffffffffffffffffffffffffffffff021916908373ffffffffffffffffffffffffffffffffffffffff160217905550600282015481600201556003820160009054906101000a900460ff168160030160006101000a81548160ff0219169083151502179055506004820154816004015560058201548160050155600682018160060190805460018160011615610100020316600290046112909291906132e4565b50505060008490505b60016002805490500381101561143357600260018201815481106112b957fe5b9060005260206000209060070201600282815481106112d457fe5b90600052602060002090600702016000820160009054906101000a900473ffffffffffffffffffffffffffffffffffffffff168160000160006101000a81548173ffffffffffffffffffffffffffffffffffffffff021916908373ffffffffffffffffffffffffffffffffffffffff1602179055506001820160009054906101000a900473ffffffffffffffffffffffffffffffffffffffff168160010160006101000a81548173ffffffffffffffffffffffffffffffffffffffff021916908373ffffffffffffffffffffffffffffffffffffffff160217905550600282015481600201556003820160009054906101000a900460ff168160030160006101000a81548160ff0219169083151502179055506004820154816004015560058201548160050155600682018160060190805460018160011615610100020316600290046114229291906132e4565b509050508080600101915050611299565b50600280548061143f57fe5b6001900381819060005260206000209060070201600080820160006101000a81549073ffffffffffffffffffffffffffffffffffffffff02191690556001820160006101000a81549073ffffffffffffffffffffffffffffffffffffffff021916905560028201600090556003820160006101000a81549060ff0219169055600482016000905560058201600090556006820160006114de919061336b565b505090553373ffffffffffffffffffffffffffffffffffffffff167f151cc99212378237b4f72dc4d62087ccac5d5d02c54ff6ba56226e2e575365d0856040518082815260200191505060405180910390a250505050565b6003818154811061154357fe5b90600052602060002090600702016000915090508060000160009054906101000a900473ffffffffffffffffffffffffffffffffffffffff16908060010160009054906101000a900473ffffffffffffffffffffffffffffffffffffffff16908060020154908060030160009054906101000a900460ff1690806004015490806005015490806006018054600181600116156101000203166002900480601f0160208091040260200160405190810160405280929190818152602001828054600181600116156101000203166002900480156116605780601f1061163557610100808354040283529160200191611660565b820191906000526020600020905b81548152906001019060200180831161164357829003601f168201915b5050505050905087565b600660003373ffffffffffffffffffffffffffffffffffffffff1673ffffffffffffffffffffffffffffffffffffffff16815260200190815260200160002060009054906101000a900460ff16611729576040517f08c379a000000000000000000000000000000000000000000000000000000000815260040180806020018281038252601a8152602001807f596f7520617265206e6f742070617274206f66206f776e65727300000000000081525060200191505060405180910390fd5b806000811015801561174057506002805490508111155b6117b2576040517f08c379a000000000000000000000000000000000000000000000000000000000815260040180806020018281038252601c8152602001807f6e6f742077697468696e207472616e73616374696f6e2072616e67650000000081525060200191505060405180910390fd5b81600281815481106117c057fe5b906000526020600020906007020160030160009054906101000a900460ff1615611852576040517f08c379a000000000000000000000000000000000000000000000000000000000815260040180806020018281038252601c8152602001807f5472616e73616374696f6e20616c72656164792065786563757465640000000081525060200191505060405180910390fd5b60006002848154811061186157fe5b90600052602060002090600702019050806004016000815480929190600101919050555060016008600086815260200190815260200160002060003373ffffffffffffffffffffffffffffffffffffffff1673ffffffffffffffffffffffffffffffffffffffff16815260200190815260200160002060006101000a81548160ff0219169083151502179055503373ffffffffffffffffffffffffffffffffffffffff167f7b19c08b12f940ea76949b68d355070966056a862ad2c1aa6676ecbcc9538a61856040518082815260200191505060405180910390a250505050565b6004818154811061194f57fe5b90600052602060002090600702016000915090508060000160009054906101000a900473ffffffffffffffffffffffffffffffffffffffff16908060010160009054906101000a900473ffffffffffffffffffffffffffffffffffffffff16908060020154908060030160009054906101000a900460ff1690806004015490806005015490806006018054600181600116156101000203166002900480601f016020809104026020016040519081016040528092919081815260200182805460018160011615610100020316600290048015611a6c5780601f10611a4157610100808354040283529160200191611a6c565b820191906000526020600020905b815481529060010190602001808311611a4f57829003601f168201915b5050505050905087565b60066020528060005260406000206000915054906101000a900460ff1681565b60608060608060608060038054905067ffffffffffffffff81118015611abb57600080fd5b50604051908082528060200260200182016040528015611aea5781602001602082028036833780820191505090505b509050606060038054905067ffffffffffffffff81118015611b0b57600080fd5b50604051908082528060200260200182016040528015611b3a5781602001602082028036833780820191505090505b509050606060038054905067ffffffffffffffff81118015611b5b57600080fd5b50604051908082528060200260200182016040528015611b8a5781602001602082028036833780820191505090505b509050606060038054905067ffffffffffffffff81118015611bab57600080fd5b50604051908082528060200260200182016040528015611bda5781602001602082028036833780820191505090505b509050606060038054905067ffffffffffffffff81118015611bfb57600080fd5b50604051908082528060200260200182016040528015611c2a5781602001602082028036833780820191505090505b50905060008090505b600380549050811015611dfc5760038181548110611c4d57fe5b906000526020600020906007020160000160009054906101000a900473ffffffffffffffffffffffffffffffffffffffff16868281518110611c8b57fe5b602002602001019073ffffffffffffffffffffffffffffffffffffffff16908173ffffffffffffffffffffffffffffffffffffffff168152505060038181548110611cd257fe5b906000526020600020906007020160010160009054906101000a900473ffffffffffffffffffffffffffffffffffffffff16858281518110611d1057fe5b602002602001019073ffffffffffffffffffffffffffffffffffffffff16908173ffffffffffffffffffffffffffffffffffffffff168152505060038181548110611d5757fe5b906000526020600020906007020160020154848281518110611d7557fe5b60200260200101818152505060038181548110611d8e57fe5b906000526020600020906007020160040154838281518110611dac57fe5b60200260200101818152505060038181548110611dc557fe5b906000526020600020906007020160050154828281518110611de357fe5b6020026020010181815250508080600101915050611c33565b5084848484849950995099509950995050505050509091929394565b60606005805480602002602001604051908101604052809291908181526020018280548015611e9c57602002820191906000526020600020905b8160009054906101000a900473ffffffffffffffffffffffffffffffffffffffff1673ffffffffffffffffffffffffffffffffffffffff1681526020019060010190808311611e52575b5050505050905090565b60086020528160005260406000206020528060005260406000206000915091509054906101000a900460ff1681565b600660003373ffffffffffffffffffffffffffffffffffffffff1673ffffffffffffffffffffffffffffffffffffffff16815260200190815260200160002060009054906101000a900460ff16611f94576040517f08c379a000000000000000000000000000000000000000000000000000000000815260040180806020018281038252601a8152602001807f596f7520617265206e6f742070617274206f66206f776e65727300000000000081525060200191505060405180910390fd5b6000600280549050905060026040518060e001604052803373ffffffffffffffffffffffffffffffffffffffff1681526020018673ffffffffffffffffffffffffffffffffffffffff1681526020018581526020016000151581526020016000815260200183815260200184815250908060018154018082558091505060019003906000526020600020906007020160009091909190915060008201518160000160006101000a81548173ffffffffffffffffffffffffffffffffffffffff021916908373ffffffffffffffffffffffffffffffffffffffff16021790555060208201518160010160006101000a81548173ffffffffffffffffffffffffffffffffffffffff021916908373ffffffffffffffffffffffffffffffffffffffff1602179055506040820151816002015560608201518160030160006101000a81548160ff0219169083151502179055506080820151816004015560a0820151816005015560c08201518160060190805190602001906121149291906133b3565b5050508373ffffffffffffffffffffffffffffffffffffffff163373ffffffffffffffffffffffffffffffffffffffff167f0f2910e6cd9547e97485dd075dd400d90548c91386d2008a2bf96f5d4ec4f76c8584604051808381526020018281526020019250505060405180910390a350505050565b60075481565b6002818154811061219d57fe5b90600052602060002090600702016000915090508060000160009054906101000a900473ffffffffffffffffffffffffffffffffffffffff16908060010160009054906101000a900473ffffffffffffffffffffffffffffffffffffffff16908060020154908060030160009054906101000a900460ff1690806004015490806005015490806006018054600181600116156101000203166002900480601f0160208091040260200160405190810160405280929190818152602001828054600181600116156101000203166002900480156122ba5780601f1061228f576101008083540402835291602001916122ba565b820191906000526020600020905b81548152906001019060200180831161229d57829003601f168201915b5050505050905087565b600047905090565b60608060608060608060048054905067ffffffffffffffff811180156122f157600080fd5b506040519080825280602002602001820160405280156123205781602001602082028036833780820191505090505b509050606060048054905067ffffffffffffffff8111801561234157600080fd5b506040519080825280602002602001820160405280156123705781602001602082028036833780820191505090505b509050606060048054905067ffffffffffffffff8111801561239157600080fd5b506040519080825280602002602001820160405280156123c05781602001602082028036833780820191505090505b509050606060048054905067ffffffffffffffff811180156123e157600080fd5b506040519080825280602002602001820160405280156124105781602001602082028036833780820191505090505b509050606060048054905067ffffffffffffffff8111801561243157600080fd5b506040519080825280602002602001820160405280156124605781602001602082028036833780820191505090505b50905060008090505b600480549050811015612632576004818154811061248357fe5b906000526020600020906007020160000160009054906101000a900473ffffffffffffffffffffffffffffffffffffffff168682815181106124c157fe5b602002602001019073ffffffffffffffffffffffffffffffffffffffff16908173ffffffffffffffffffffffffffffffffffffffff16815250506004818154811061250857fe5b906000526020600020906007020160010160009054906101000a900473ffffffffffffffffffffffffffffffffffffffff1685828151811061254657fe5b602002602001019073ffffffffffffffffffffffffffffffffffffffff16908173ffffffffffffffffffffffffffffffffffffffff16815250506004818154811061258d57fe5b9060005260206000209060070201600201548482815181106125ab57fe5b602002602001018181525050600481815481106125c457fe5b9060005260206000209060070201600401548382815181106125e257fe5b602002602001018181525050600481815481106125fb57fe5b90600052602060002090600702016005015482828151811061261957fe5b6020026020010181815250508080600101915050612469565b5084848484849950995099509950995050505050509091929394565b3373ffffffffffffffffffffffffffffffffffffffff167f6516b3c931a182ac0cb5aec31a6c8ca76ed627a0b478aded50734de5041893c33447604051808381526020018281526020019250505060405180910390a2565b600660003373ffffffffffffffffffffffffffffffffffffffff1673ffffffffffffffffffffffffffffffffffffffff16815260200190815260200160002060009054906101000a900460ff16612765576040517f08c379a000000000000000000000000000000000000000000000000000000000815260040180806020018281038252601a8152602001807f596f7520617265206e6f742070617274206f66206f776e65727300000000000081525060200191505060405180910390fd5b60018060006101000a81548160ff021916908315150217905561278757600080fd5b600160009054906101000a900460ff1615600160006101000a81548160ff021916908315150217905550565b600660003373ffffffffffffffffffffffffffffffffffffffff1673ffffffffffffffffffffffffffffffffffffffff16815260200190815260200160002060009054906101000a900460ff16612872576040517f08c379a000000000000000000000000000000000000000000000000000000000815260040180806020018281038252601a8152602001807f596f7520617265206e6f742070617274206f66206f776e65727300000000000081525060200191505060405180910390fd5b806000811015801561288957506002805490508111155b6128fb576040517f08c379a000000000000000000000000000000000000000000000000000000000815260040180806020018281038252601c8152602001807f6e6f742077697468696e207472616e73616374696f6e2072616e67650000000081525060200191505060405180910390fd5b816002818154811061290957fe5b906000526020600020906007020160030160009054906101000a900460ff161561299b576040517f08c379a000000000000000000000000000000000000000000000000000000000815260040180806020018281038252601c8152602001807f5472616e73616374696f6e20616c72656164792065786563757465640000000081525060200191505060405180910390fd5b60026000541415612a14576040517f08c379a000000000000000000000000000000000000000000000000000000000815260040180806020018281038252601f8152602001807f5265656e7472616e637947756172643a207265656e7472616e742063616c6c0081525060200191505060405180910390fd5b600260008190555060018060006101000a81548160ff0219169083151502179055612a3e57600080fd5b600060028481548110612a4d57fe5b9060005260206000209060070201905060075481600401541015612abc576040517f08c379a000000000000000000000000000000000000000000000000000000000815260040180806020018281038252603a815260200180613459603a913960400191505060405180910390fd5b60018160030160006101000a81548160ff0219169083151502179055508060010160009054906101000a900473ffffffffffffffffffffffffffffffffffffffff1673ffffffffffffffffffffffffffffffffffffffff166108fc82600201549081150290604051600060405180830381858888f19350505050158015612b47573d6000803e3d6000fd5b5060038190806001815401808255809150506001900390600052602060002090600702016000909190919091506000820160009054906101000a900473ffffffffffffffffffffffffffffffffffffffff168160000160006101000a81548173ffffffffffffffffffffffffffffffffffffffff021916908373ffffffffffffffffffffffffffffffffffffffff1602179055506001820160009054906101000a900473ffffffffffffffffffffffffffffffffffffffff168160010160006101000a81548173ffffffffffffffffffffffffffffffffffffffff021916908373ffffffffffffffffffffffffffffffffffffffff160217905550600282015481600201556003820160009054906101000a900460ff168160030160006101000a81548160ff021916908315150217905550600482015481600401556005820154816005015560068201816006019080546001816001161561010002031660029004612cb49291906132e4565b50505060008490505b600160028054905003811015612e575760026001820181548110612cdd57fe5b906000526020600020906007020160028281548110612cf857fe5b90600052602060002090600702016000820160009054906101000a900473ffffffffffffffffffffffffffffffffffffffff168160000160006101000a81548173ffffffffffffffffffffffffffffffffffffffff021916908373ffffffffffffffffffffffffffffffffffffffff1602179055506001820160009054906101000a900473ffffffffffffffffffffffffffffffffffffffff168160010160006101000a81548173ffffffffffffffffffffffffffffffffffffffff021916908373ffffffffffffffffffffffffffffffffffffffff160217905550600282015481600201556003820160009054906101000a900460ff168160030160006101000a81548160ff021916908315150217905550600482015481600401556005820154816005015560068201816006019080546001816001161561010002031660029004612e469291906132e4565b509050508080600101915050612cbd565b506002805480612e6357fe5b6001900381819060005260206000209060070201600080820160006101000a81549073ffffffffffffffffffffffffffffffffffffffff02191690556001820160006101000a81549073ffffffffffffffffffffffffffffffffffffffff021916905560028201600090556003820160006101000a81549060ff021916905560048201600090556005820160009055600682016000612f02919061336b565b505090553373ffffffffffffffffffffffffffffffffffffffff167fca97e19a0e104553951d9506767a014469c3147f77816f5e8162adccf3725338856040518082815260200191505060405180910390a2506001600081905550505050565b60608060608060608060028054905067ffffffffffffffff81118015612f8757600080fd5b50604051908082528060200260200182016040528015612fb65781602001602082028036833780820191505090505b509050606060028054905067ffffffffffffffff81118015612fd757600080fd5b506040519080825280602002602001820160405280156130065781602001602082028036833780820191505090505b509050606060028054905067ffffffffffffffff8111801561302757600080fd5b506040519080825280602002602001820160405280156130565781602001602082028036833780820191505090505b509050606060028054905067ffffffffffffffff8111801561307757600080fd5b506040519080825280602002602001820160405280156130a65781602001602082028036833780820191505090505b509050606060028054905067ffffffffffffffff811180156130c757600080fd5b506040519080825280602002602001820160405280156130f65781602001602082028036833780820191505090505b50905060008090505b6002805490508110156132c8576002818154811061311957fe5b906000526020600020906007020160000160009054906101000a900473ffffffffffffffffffffffffffffffffffffffff1686828151811061315757fe5b602002602001019073ffffffffffffffffffffffffffffffffffffffff16908173ffffffffffffffffffffffffffffffffffffffff16815250506002818154811061319e57fe5b906000526020600020906007020160010160009054906101000a900473ffffffffffffffffffffffffffffffffffffffff168582815181106131dc57fe5b602002602001019073ffffffffffffffffffffffffffffffffffffffff16908173ffffffffffffffffffffffffffffffffffffffff16815250506002818154811061322357fe5b90600052602060002090600702016002015484828151811061324157fe5b6020026020010181815250506002818154811061325a57fe5b90600052602060002090600702016004015483828151811061327857fe5b6020026020010181815250506002818154811061329157fe5b9060005260206000209060070201600501548282815181106132af57fe5b60200260200101818152505080806001019150506130ff565b5084848484849950995099509950995050505050509091929394565b828054600181600116156101000203166002900490600052602060002090601f016020900481019282601f1061331d578054855561335a565b8280016001018555821561335a57600052602060002091601f016020900482015b8281111561335957825482559160010191906001019061333e565b5b5090506133679190613433565b5090565b50805460018160011615610100020316600290046000825580601f1061339157506133b0565b601f0160209004906000526020600020908101906133af9190613433565b5b50565b828054600181600116156101000203166002900490600052602060002090601f016020900481019282601f106133f457805160ff1916838001178555613422565b82800160010185558215613422579182015b82811115613421578251825591602001919060010190613406565b5b50905061342f9190613433565b5090565b61345591905b80821115613451576000816000905550600101613439565b5090565b9056fe63616e6e6f742045786563757465205472616e73616374696f6e2d496e76616c6964204e756d626572206f6620436f6e6669726d6174696f6e73a264697066735822122069ca2f94a503874e813a6926277533dfba2cfbeb68eb23e05eb0fce029d5c48464736f6c634300060a00334974732061206d756c74692d5369676e61747572652077616c6c65742c20796f75206e656564206d6f7265207468616e206f6e65206f776e657273",
  "immutableReferences": {},
  "source": "// SPDX-License-Identifier: GPL-3.0\npragma solidity >=0.4.2 <0.8.0;\n//pragma experimental ABIEncoderV2;\nimport \"@openzeppelin/contracts/utils/ReentrancyGuard.sol\";\ncontract MultiSigWallet is ReentrancyGuard{\n    //define a struct- Transaction\n    struct Transaction{\n        address txSender;\n        address payable destination;\n        uint amount;\n        bool isExecuted;\n        uint noOfConfirmations;\n        uint txId;\n        bytes data;\n         \n    }\n    bool isActive = true;\n    function toggleCircuitBreaker() external onlyOwner contractIsActive() {\n        isActive = !isActive;\n    }\n    modifier contractIsActive(){\n        require(isActive = true);\n        _;\n    }\n    //array of addres ownrs in Remix js VM for deployment [\"0x5B38Da6a701c568545dCfcB03FcB875f56beddC4\", \"0xAb8483F64d9C6d1EcF9b849Ae677dD3315835cb2\", \"0x4B20993Bc481177ec7E8f571ceCaE8A9e22C02db\"], 2\n    //array of address owners from metamask for deployment [\"0x0d6589Fcf3b02b5723c6DDb47756382d865f3Af5\", \"0x61844cD4148A53321194a9a50Ef97Fb0D4364C3A\", \"0x51520526F6aB6fE5658782F4D5C742Cd020b143f\"], 2\n    Transaction[] public transactions;//all or pending transactions\n    Transaction[] public successfulTransactions;//successfulTransactions\n    Transaction[] public revokedTransactions;//successfulTransactions\n    address[]public owners;\n    mapping(address => bool)public isOwner;\n    uint public requiredConfirmations;\n    \n    mapping(uint => mapping(address => bool)) public isApproved;\n    constructor(address[] memory _owners, uint _requiredConfirmations)public {\n        require(_owners.length > 1, 'Its a multi-Signature wallet, you need more than one owners');\n        require(_requiredConfirmations > 1 && _requiredConfirmations <= _owners.length);\n        for(uint i; i < _owners.length; i++){\n            address _owner = _owners[i];\n            require(_owner != address(0), \"This is not a valid owner\");\n            require(!isOwner[_owner], \"owner not unique\");\n            isOwner[_owner] = true;\n            owners.push(_owner);\n        }\n        requiredConfirmations = _requiredConfirmations;\n    }\n    //fallback function to recieve ether\n    fallback() payable external {\n        emit deposit2Contract(msg.sender, msg.value, address(this).balance);\n    }\n    function deposit () payable external {\n        emit deposit2Contract(msg.sender, msg.value, address(this).balance);\n    }\n    //function to check contract balance\n    function checkBalance() public view returns(uint256){\n        return address(this).balance;\n    }\n    //events\n    //event for TransactionProposed\n    event TransactionProposed(address indexed owner, address indexed destination, uint amount,uint transactionId);\n    //event for TransactionApproved\n    event TransactionApproved(address indexed owner,uint transactionId);\n    //event for execution\n    event ExecutedTransaction(address indexed owner,uint transactionId);\n    //event for rejected transaction\n    event rejectedTransaction(address indexed owner,uint transactionId);\n    //event for fallback\n    event contractFallback(address indexed sender, uint amount, uint balance);\n    //deposit event\n    event deposit2Contract(address indexed sender, uint amount, uint balance);\n    // mmodifier to check if caller is part of owners\n    modifier onlyOwner(){\n        require(isOwner[msg.sender], 'You are not part of owners');\n        _;\n    }\n    //modifier to check if Transaction Exist\n    modifier transactionExist(uint _transactionId){\n        require(_transactionId >= 0 && _transactionId <= transactions.length,\"not within transaction range\" );\n        _;\n    }\n    //mmodifier to check if transaction is not yet notApprovedYet\n    modifier notApprovedYet(uint _transactionId){\n        require(!isApproved[_transactionId][msg.sender] ,\"You cant approve a transaction more than once\");\n        _;\n    }\n    //modifier to check that transaction is not executed yet\n    modifier notExecutedYet(uint _transactionId){\n        require(!transactions[_transactionId].isExecuted, \"Transaction already executed\");\n        _;\n    }\n    //FUNCTIONS\n    function viewOwners() public view returns(address[]memory){\n        return owners;\n    }\n    \n    //function to view  pending transactions\n    function viewTransactions() external view returns(address[]memory,address[]memory,uint[]memory,uint[]memory, uint[]memory){\n        address[]memory txSenders = new address[](transactions.length);\n        address[]memory destinations = new address[](transactions.length);\n        uint[]memory amounts = new uint[](transactions.length);\n        uint[]memory noOfConfirmationss = new uint[](transactions.length);\n        uint[]memory txIds = new uint[](transactions.length);\n        \n        for(uint i = 0; i< transactions.length; i++){\n            txSenders[i] = transactions[i].txSender;\n            destinations[i] = transactions[i].destination;\n            amounts[i] = transactions[i].amount;\n            noOfConfirmationss[i] = transactions[i].noOfConfirmations;\n            txIds[i] = transactions[i].txId;\n            \n        }\n        \n        return(txSenders,destinations, amounts, noOfConfirmationss,txIds);\n    } \n    \n    //function to view successfulTransactions\n    function viewSuccessfulTransactions()public view returns(address[]memory,address[]memory,uint[]memory,uint[]memory, uint[]memory){\n        address[]memory txSenders = new address[](successfulTransactions.length);\n        address[]memory destinations = new address[](successfulTransactions.length);\n        uint[]memory amounts = new uint[](successfulTransactions.length);\n        uint[]memory noOfConfirmationss = new uint[](successfulTransactions.length);\n        uint[]memory txIds = new uint[](successfulTransactions.length);\n        \n        for(uint i = 0; i< successfulTransactions.length; i++){\n            txSenders[i] = successfulTransactions[i].txSender;\n            destinations[i] = successfulTransactions[i].destination;\n            amounts[i] = successfulTransactions[i].amount;\n            noOfConfirmationss[i] = successfulTransactions[i].noOfConfirmations;\n            txIds[i] = successfulTransactions[i].txId;\n            \n        }\n        \n        return(txSenders,destinations, amounts, noOfConfirmationss,txIds);\n    } \n    \n    //function to view revokedTransactions\n    function viewFailedTransactions()public view returns(address[]memory,address[]memory,uint[]memory,uint[]memory,uint[]memory){\n        address[]memory txSenders = new address[](revokedTransactions.length);\n        address[]memory destinations = new address[](revokedTransactions.length);\n        uint[]memory amounts = new uint[](revokedTransactions.length);\n        uint[]memory noOfConfirmationss = new uint[](revokedTransactions.length);\n        uint[]memory txIds = new uint[](revokedTransactions.length);\n        \n        for(uint i = 0; i< revokedTransactions.length; i++){\n            txSenders[i] = revokedTransactions[i].txSender;\n            destinations[i] = revokedTransactions[i].destination;\n            amounts[i] = revokedTransactions[i].amount;\n            noOfConfirmationss[i] = revokedTransactions[i].noOfConfirmations;\n            txIds[i] = revokedTransactions[i].txId;\n            \n        }\n        \n        return(txSenders,destinations, amounts, noOfConfirmationss,txIds);\n    } \n    //propose or submit a transaction\n    function proposeTransaction(address payable _destination, uint _amount, bytes memory _data)\n    public\n    onlyOwner\n    {\n        uint _transactionId = transactions.length;\n        transactions.push(Transaction({\n            txSender: msg.sender,\n            destination: _destination,\n            amount: _amount,\n            isExecuted: false,\n            noOfConfirmations: 0,\n            txId: _transactionId,\n            data: _data\n        }));\n        emit TransactionProposed(msg.sender, _destination, _amount, _transactionId);\n    }\n    //approve transaction for execution\n   /* function approveTransaction(uint _transactionId)\n    public\n    onlyOwner\n    transactionExist(_transactionId)\n    notExecutedYet(_transactionId)\n    notApprovedYet(_transactionId)\n    {\n        Transaction storage transaction = transactions[_transactionId];\n        transaction.isApproved[msg.sender] = true;\n        transaction.noOfConfirmations++;\n        emit TransactionApproved(msg.sender, _transactionId);\n    } */\n\n    function approveTransaction(uint _transactionId)\n        public\n        onlyOwner\n        transactionExist(_transactionId)\n        notExecutedYet(_transactionId)\n       // notApprovedYet(_transactionId)\n    {\n         Transaction storage transaction = transactions[_transactionId];\n\n        transaction.noOfConfirmations++;\n         isApproved[_transactionId][msg.sender] = true;\n\n        emit TransactionApproved(msg.sender, _transactionId);\n        \n    }\n    //execute transaction\n    function executeTransaction(uint _transactionId)public onlyOwner transactionExist(_transactionId) notExecutedYet(_transactionId) nonReentrant() contractIsActive(){\n        Transaction storage transaction = transactions[_transactionId];\n        require(transaction.noOfConfirmations >= requiredConfirmations,\n            \"cannot Execute Transaction-Invalid Number of Confirmations\"\n        ); \n        transaction.isExecuted = true;\n       // (bool success,) = transaction.destination.call{value: transaction.amount}(transaction.data);\n        transaction.destination.transfer(transaction.amount);\n        //push transaction to list of successful transactions\n        successfulTransactions.push(transaction);\n        //remove transactions from list of pending transactions\n            for(uint i = _transactionId; i < transactions.length-1; i++){\n            transactions[i] = transactions[i + 1];\n        }\n        transactions.pop();\n        //emit ExecutedTransaction event\n        emit ExecutedTransaction(msg.sender, _transactionId);\n        \n    }\n   \n\n\n\n    //function to revoke transaction\n    function rejectTransaction(uint _transactionId)public onlyOwner transactionExist(_transactionId) notExecutedYet(_transactionId) {\n        Transaction storage transaction = transactions[_transactionId];\n        require(isApproved[_transactionId][msg.sender], \"Transaction not Approved\");\n\n        transaction.noOfConfirmations -= 1;\n        isApproved[_transactionId][msg.sender] = false;\n          revokedTransactions.push(transaction);\n        //remove transactions from list of transactions\n        \n            for(uint i = _transactionId; i < transactions.length-1; i++){\n            transactions[i] = transactions[i + 1];\n        }\n        transactions.pop();\n        \n         emit rejectedTransaction(msg.sender, _transactionId);\n    }\n    \n    \n}\n",
  "sourcePath": "/home/jeremiah/Project/ConsensysAcadProject-MultiSig/contracts/MultiSigWallet.sol",
  "compiler": {
    "name": "solc",
    "version": "0.6.10+commit.00c0fcaf.Emscripten.clang"
  },
  "schemaVersion": "3.3.3",
  "updatedAt": "2021-02-03T12:19:09.570Z",
  "devdoc": {
    "methods": {}
  },
  "userdoc": {
    "methods": {}
  }
}